:020000040800F2
:1000000000A00020B9020008BF020008C3020008D7
:1000100035030008390300088103000800000000D0
:10002000000000000000000000000000810900083E
:10003000CD03000800000000210A0008850A00081E
:10004000E5030008E5030008E5030008E5030008F0
:10005000E5030008E5030008E5030008E5030008E0
:10006000E5030008E5030008E5030008E5030008D0
:10007000E5030008E5030008E5030008E5030008C0
:10008000E5030008E5030008E5030008E5030008B0
:10009000E5030008E5030008E5030008E5030008A0
:1000A000E5030008E5030008E5030008E503000890
:1000B000E5030008E5030008E5030008E503000880
:1000C000E5030008E5030008E5030008E503000870
:1000D000E5030008E5030008E5030008E503000860
:1000E000E5030008E5030008E5030008E503000850
:1000F000E5030008E5030008E5030008E503000840
:10010000000000000000000000000000E5030008FF
:10011000E5030008E5030008E5030008E50300081F
:10012000E5030008E5030008E5030008E50300080F
:10013000E5030008E50300080000000000000000DF
:10014000E5030008E5030008E503000800000000DF
:10015000000000000000000000000000000000009F
:100160000000000000000000E5030008E5030008AF
:10017000E50300080000000000000000000000008F
:1001800000000000E503000800B583B000F0B8F9F6
:10019000384B394A1360394A1360394906E011680F
:1001A0001960043304329842F9D82146354B9942FC
:1001B00005D20A684B6801F10C048868F3E72E4BFE
:1001C0001A68314B9A4200D0FEE72C4B1A682F4B2D
:1001D0009A42F9D1274B2E4A13602E4A13602E4BB8
:1001E00005E00020106004329342FAD80B462B4AF7
:1001F000934204D2194651F8082B5B68F4E7244B6C
:100200001B6813B9234B1B6803B1FEE700F08AF9A2
:10021000694601A800F020F9214B224CE41AA410F1
:100220000025AC4214DC204B204CE41AA41000251D
:10023000AC4213DC0099019800F0E4FA05461C4B2F
:100240001C4CE41AA410002C0EDC284600F0E0F848
:10025000134B53F8253098470135E2E7124B53F81A
:10026000253098470135E3E7013C114B53F8243022
:100270009847E8E7BABADECA0000002088000020EC
:10028000E8030008000400087856341232547698C7
:100290008C000020B43E0020000400081004000878
:1002A00010040008100400081004000810040008DE
:1002B000100400081004000808B5FFF765FF00BE31
:1002C000FEE71EF0040F0CBFEFF30880EFF3098088
:1002D0007146414A10472DE9F04182B004468846F4
:1002E000124B5E6B9F6B9D6A1B6B13F0020F03D06A
:1002F0000E4BDB6A002B0CDB0D4800F0B5F8CDF897
:1003000000803B4632462946204600F00FF900BEE9
:10031000FEE74BF6AB6100F083F90028ECD04FF01C
:100320000042024BDA6202B0BDE8F08100ED00E06D
:10033000FC2B000800BEFEE71EF0040F0CBFEFF31D
:100340000880EFF309807146244A10472DE9F041F7
:1003500082B004468846084B5E6B9F6B9D6A0748D7
:1003600000F082F8CDF800803B4632462946204610
:1003700000F0DCF800BEFEE700ED00E00C2C000809
:100380001EF0040F0CBFEFF30880EFF309807146F5
:10039000134A10472DE9F04182B004468846084BC5
:1003A0005E6B9F6B9D6A074800F05EF8CDF8008099
:1003B0003B4632462946204600F0B8F800BEFEE72C
:1003C00000ED00E0182C000800BEFEE700BEFEE7CE
:1003D00000BEFEE770470000D70200084D0300088A
:0803E0009503000800BEFEE7D2
:1003E800082D0008000000208C000020082D0008BF
:1003F80000000010000000108C000020B83E002013
:080408000000001000000010CC
:10041000FEE7000008B503460C4A12685AB10B4AC1
:100420001068033323F003030344094A934206D8B8
:10043000064A136008BD0749044A1160EFE701F05E
:10044000BBFE0C2303604FF0FF3008BD900000207E
:10045000009C0020B83E002001230360014B0B608C
:10046000704700BF040000200FB400B583B004AB98
:1004700053F8042B01938021064801F0E3FE002885
:1004800003DD0146034800F037F803B05DF804EBE4
:1004900004B07047980000202DE9F04385B0044671
:1004A0000F4643560BB10E461EE004252846214652
:1004B000ABBE0446384605B0BDE8F08314F9011B15
:1004C00004AA1A4402F8101C0133AB42F6D304AA62
:1004D0001344002203F8102CE9464FF0040840466C
:1004E0004946ABBE8046761B002EE3D03546102E23
:1004F00028BF10250023E8E708B5FFF7CDFF08BDAA
:1005000008B500F0F5F8054B054A9A60D3F8882045
:1005100042F47002C3F8882008BD00BF00ED00E07F
:100520000000000808B500F01BF908BDF8B5044646
:100530000D4617461E462748FFF796FF21682648B6
:10054000FFF792FF61682548FFF78EFFA1682448F6
:10055000FFF78AFFE1682348FFF786FF21692248F9
:10056000FFF782FF61692148FFF77EFFA1692048FC
:10057000FFF77AFFE1691F48FFF776FF1E48FFF794
:1005800073FF29461D48FFF76FFF1D4CE16A1D48A8
:10059000FFF76AFF216B1C48FFF766FFE16B1B4802
:1005A000FFF762FF15F0800F0AD115F4004F0CD150
:1005B0001748FFF759FF06991648FFF755FFF8BD92
:1005C00039461548FFF750FFEFE731461348FFF76C
:1005D0004BFFEDE7E02A0008F02A0008002B000896
:1005E000102B0008202B0008302B0008402B00089F
:1005F000502B0008602B0008702B00087C2B000893
:1006000000ED00E08C2B00089C2B0008AC2B0008B0
:10061000DC2B0008E42B0008BC2B0008CC2B0008C6
:1006200083691A888A4201D0002070470268033A21
:10063000012A03D8023383610120704700207047EC
:1006400082B0002301930093274A136843F4803358
:100650001360254B1B6803F400330093019B0133A7
:100660000193009B1BB9019BB3F5A06FF1D11E4B09
:100670001B6813F4003F06D001230093009B012B5D
:1006800004D002B0704700230093F7E71222174B03
:100690001A60A3F580535A685A605A685A605A68BB
:1006A00042F480625A605A6822F47C125A605A6896
:1006B00042F4E8125A601A6842F080721A600A4BDB
:1006C0001B6813F0007FFAD0074B5A6822F0030230
:1006D0005A605A6842F002025A60034B5B6803F0AA
:1006E0000C03082BF9D1CCE7001002400020024097
:1006F00010B5174CD4F8883043F47003C4F8883030
:10070000144B1A6842F001021A605968124A0A40F2
:100710005A601A6822F0847222F480321A601A68D1
:1007200022F480221A605A6822F4FE025A60DA6AC1
:1007300022F00F02DA62196B084A0A401A6300229B
:100740009A60FFF77DFF4FF00063A36010BD00BF0C
:1007500000ED00E0001002400CC07FF8CCFC00FF70
:100760001D4B5B6803F00C03042B15D0082B17D02E
:100770001BB11A4A1A4B1A6002E0184A184B1A6049
:10078000154B5B68C3F30313164AD35CDAB2144902
:100790000B68D3400B607047104A114B1A60EFE7AB
:1007A0000D4A53685268C3F38343023312F4803F07
:1007B00005D10D4A02FB03F3094A1360E0E7064A3C
:1007C000D26A02F00F02511C044AB2FBF1F202FBA2
:1007D00003F3034A1360D3E70010024000127A00CB
:1007E0001C0000200C00002000093D0008B5FFF7A8
:1007F0007FFF08BD08B50248FFF736FEFBE700BFE4
:100800007C2C000800B583B0FFF7F0FF00230193B4
:10081000012200924FF480720349044800F0ECFE7C
:1008200000F01CFFFEE700BF282C0008F5070008B9
:1008300008B50248FFF718FEFEE700BF9C2C000831
:1008400008B50248FFF710FEFEE700BF342C000891
:1008500008B50248FFF708FEFEE700BF542C000869
:10086000FEE7000038B5044610F0070F02D020F074
:100870000704083400F036FF114B1B6893B1114B8D
:100880001B681C4443F6F732944211D8A34211D29C
:100890000B4A15681D440B4B1C6000F0C7FF5DB18F
:1008A000284638BD084B23F00703054A1360E6E7E6
:1008B0000025F2E70025F0E7FFF7CAFFF0E700BFE9
:1008C000180100201C3D00202401002040B14FF001
:1008D000500383F31188BFF36F8FBFF34F8FFEE791
:1008E000704700000B4B1B68B3F1FF3F08D04FF07F
:1008F000500383F31188BFF36F8FBFF34F8FFEE771
:100900004FF0500383F31188BFF36F8FBFF34F8F06
:10091000FEE700BF2000002006480068006880F362
:10092000088862B661B6BFF34F8FBFF36F8F00DFE9
:1009300000BF000008ED00E0DFF80C00016841F4A2
:10094000700101607047000088ED00E04FF0807397
:1009500040F8043C21F0010140F8081C054B40F828
:100960000C3C40F8202C6FF0020340F8243C443843
:10097000704700BFE508000800000000000000000C
:10098000074B19680868B0E8F04F80F30988BFF397
:100990006F8F4FF0000080F311887047AFF3008035
:1009A000283D00204FF0500383F31188BFF36F8F71
:1009B000BFF34F8F0A4A136801331360012B0DD127
:1009C000084B1B6813F0FF0F08D04FF0500383F360
:1009D0001188BFF36F8FBFF34F8FFEE7704700BFE3
:1009E0002000002004ED00E0094B1B6843B94FF0E4
:1009F000500383F31188BFF36F8FBFF34F8FFEE770
:100A0000013B034A13600BB983F31188704700BFA1
:100A10002000002000000000000000000000000096
:100A2000EFF30980BFF36F8F154B1A681EF0100F9C
:100A300008BF20ED108A20E9F04F10604DF8043D0A
:100A40004FF0500080F31188BFF34F8FBFF36F8FCB
:100A500000F0B0FF4FF0000080F3118808BC196867
:100A60000868B0E8F04F1EF0100F08BFB0EC108A15
:100A700080F30988BFF36F8F704700BFAFF300802A
:100A8000283D002008B54FF0500383F31188BFF3D1
:100A90006F8FBFF34F8F00F033FE18B14FF08052CD
:100AA000024B1A60002383F3118808BD04ED00E0B7
:100AB000064B1B68064AA2FB03239B09013B054A20
:100AC00013600722044B1A60704700BF1C0000200F
:100AD000D34D621014E000E010E000E0314B1A68E2
:100AE000314B9A421AD02F4B1A68304B9A421ED083
:100AF00000B583B02E4B1A78D2B20192FF221A7041
:100B00001B78DBB28DF803309DF8033003F05003FF
:100B1000284A13700722284B1A601BE04FF050033D
:100B200083F31188BFF36F8FBFF34F8FFEE74FF052
:100B3000500383F31188BFF36F8FBFF34F8FFEE72E
:100B40001D4A1368013B13609DF803305B00DBB264
:100B50008DF803309DF8033013F0800FF0D1164A62
:100B600013681B0203F4E0631360019BDBB2104ABD
:100B70001370124B1A6842F470021A601A6842F03D
:100B800070421A60FFF794FF00220D4B1A60FFF7C6
:100B9000D3FE0C4A136843F040431360FFF7BCFEDA
:100BA000FFF7A0FE00ED00E071C20F4170C20F41DF
:100BB00000E400E0203D0020243D002020ED00E086
:100BC0002000002034EF00E0EFF305830F2B0FD956
:100BD000104A9B5CDBB2104A1278934208D24FF065
:100BE000500383F31188BFF36F8FBFF34F8FFEE77E
:100BF0000A4B1B6803F4E063094A1268934208D960
:100C00004FF0500383F31188BFF36F8FBFF34F8F03
:100C1000FEE77047F0E300E0203D00200CED00E02F
:100C2000243D002000F1080343604FF0FF32826052
:100C3000C3600361002303607047002303617047B2
:100C400043684B609A688A609A685160996008614D
:100C5000036801330360704730B40D68B5F1FF3F9E
:100C600002D000F1080202E0026904E01A4653686B
:100C70001C68A542FAD253684B6099608A60516043
:100C8000086103680133036030BC70470369426840
:100C9000816891608268416851605A68904205D0CD
:100CA00000220261186801381860704782685A6033
:100CB000F6E710B50446FFF775FEA26BE36B9A42A8
:100CC00004D00024FFF790FE204610BD0124F9E770
:100CD00010B50446FFF766FEA36B23B10024FFF7AF
:100CE00083FE204610BD0124F9E770B50446164680
:100CF000856B026C4AB9036853BB406800F0F8FF8B
:100D0000002363600135A56370BD6EB9806801F092
:100D100059FA226CA3681344A3606268934219D302
:100D20002368A3600020EDE7C06801F04BFA236C54
:100D30005B42E2681A44E26021688A4202D2626839
:100D40001344E360022E07D145B1013D0020D9E7ED
:100D50000020D7E70020D5E70020D3E70020D1E727
:100D6000026C72B110B50346C4681444C460406894
:100D7000844201D31868D8600846D96801F022FA85
:100D800010BD704738B50546FFF70CFE95F8454095
:100D900064B201E0013C64B2002C0ADD6B6A43B12D
:100DA00005F1240000F0A0FE0028F3D000F038FF89
:100DB000F0E7FF2385F84530FFF716FEFFF7F2FD59
:100DC00095F8444064B201E0013C64B2002C0ADDB5
:100DD0002B6943B105F1100000F086FE0028F3D026
:100DE00000F01EFFF0E7FF2385F84430FFF7FCFD1D
:100DF00038BD000038B530B304460D46FFF7D2FDCC
:100E00002168E26B236C03FB021060600020A0638A
:100E1000A160013A02FB0313E360FF2384F844302E
:100E200084F84530C5B92369F3B104F1100000F02E
:100E30005BFEC8B14FF080520D4B1A60BFF34F8F6D
:100E4000BFF36F8F10E04FF0500383F31188BFF3AF
:100E50006F8FBFF34F8FFEE704F11000FFF7E2FE44
:100E600004F12400FFF7DEFEFFF7BEFD012038BDD0
:100E700004ED00E038B51D46049C0B4649B12260E4
:100E8000E063236401212046FFF7B4FF84F84C504F
:100E900038BD2460F4E740B94FF0500383F3118864
:100EA000BFF36F8FBFF34F8FFEE7F0B583B00546FA
:100EB00011B101FB00F000E0002017460C46503055
:100EC000FFF7D0FC064638B100903B4600F15002D7
:100ED00021462846FFF7CEFF304603B0F0BD0000A4
:100EE000F0B585B0019260B1044699B10125BDB954
:100EF0004FF0500383F31188BFF36F8FBFF34F8F11
:100F0000FEE74FF0500383F31188BFF36F8FBFF3F9
:100F10004F8FFEE7026C0AB90125E8E70025E6E7F6
:100F2000022B09D06DB94FF0500383F31188BFF342
:100F30006F8FBFF34F8FFEE7E26B012AF2D00025DF
:100F4000F0E71E460F4600F071FE10B9019B03B199
:100F5000002545B94FF0500383F31188BFF36F8F1D
:100F6000BFF34F8FFEE700252CE03246394620467E
:100F7000FFF7BBFE636A8BB104F1240000F0B4FDFF
:100F800038B14FF08052374B1A60BFF34F8FBFF329
:100F90006F8FFFF729FD012005B0F0BD0028F8D0C4
:100FA0004FF080522F4B1A60BFF34F8FBFF36F8FFC
:100FB000EFE7FFF719FD0020EEE72046FFF7E2FE1E
:100FC00000F034FCFFF7EEFCA26BE36B9A42CCD34B
:100FD000022ECAD0019B002BEBD01DB902A800F055
:100FE000C9FD0125FFF700FD00F07CFBFFF7DAFCEF
:100FF00094F844305BB2B3F1FF3F02D1002384F890
:10100000443094F845305BB2B3F1FF3F02D1002386
:1010100084F84530FFF7E8FC01A902A800F0C0FD04
:10102000C8B92046FFF745FE0028C6D0019904F153
:10103000100000F025FD2046FFF7A4FE00F0F6FBAF
:101040000028BFD14FF08052064B1A60BFF34F8F7C
:10105000BFF36F8FB6E72046FFF794FE00F0E6FB84
:10106000002099E704ED00E02DE9F84360B1044663
:1010700099B10120B8B94FF0500383F31188BFF341
:101080006F8FBFF34F8FFEE74FF0500383F311884C
:10109000BFF36F8FBFF34F8FFEE7006C08B90120DD
:1010A000E8E70020E6E7022B09D068B94FF05003CB
:1010B00083F31188BFF36F8FBFF34F8FFEE7E56BAC
:1010C000012DF2D00020F0E71F4690468946FFF739
:1010D0007BFDEFF311864FF0500383F31188BFF3CC
:1010E0006F8FBFF34F8FA26BE36B9A4201D3022F36
:1010F00021D194F845506DB23A4649462046FFF753
:10110000F4FDB5F1FF3F10D1636AB3B104F12400DF
:1011100000F0EAFC98B1B8F1000F12D00120C8F835
:10112000000086F31188BDE8F8836B1C5BB284F87D
:1011300045300120F5E70020F3E70120F1E7012029
:10114000EFE70120EDE700002DE9F04184B00192C6
:1011500060B1044699B10125BDB94FF0500383F346
:101160001188BFF36F8FBFF34F8FFEE74FF050032F
:1011700083F31188BFF36F8FBFF34F8FFEE7026CCD
:101180000AB90125E8E70025E6E71F46884600F092
:101190004DFD10B9019B03B1002545B94FF0500337
:1011A00083F31188BFF36F8FBFF34F8FFEE70026E5
:1011B0005DE0E66841462046FFF7D2FDDFB9013D1C
:1011C000A563236813B900F0EDFD6060236963B186
:1011D00004F1100000F088FC38B14FF08052454B0C
:1011E0001A60BFF34F8FBFF36F8FFFF7FDFB012036
:1011F00004B0BDE8F081E660636A002BF5D004F12D
:10120000240000F071FC0028EFD04FF08052394BE1
:101210001A60BFF34F8FBFF36F8FE6E7FFF7E4FB72
:101220000020E5E702A800F0A5FC012629E0002344
:1012300084F8443031E0002384F8453033E0FFF790
:10124000B1FB606800F002FDFFF7CEFB3BE02046FB
:10125000FFF798FD00F0EAFA09E02046FFF792FD5B
:1012600000F0E4FA2046FFF733FD002840D1FFF7F5
:1012700099FBA56B002D9CD1019B002BCED0002E9D
:10128000D0D0FFF7B1FB00F02DFAFFF78BFB94F8FD
:1012900044305BB2B3F1FF3FC9D094F845305BB244
:1012A000B3F1FF3FC7D0FFF79FFB01A902A800F0F1
:1012B00077FC0028D1D12046FFF70AFD0028C6D0D0
:1012C0002368002BBBD0019904F1240000F0D8FB67
:1012D0002046FFF757FD00F0A9FA0028C7D14FF0CC
:1012E0008052044B1A60BFF34F8FBFF36F8FBEE77E
:1012F00000207DE704ED00E00023072B0CD8074A0F
:1013000052F833200AB10133F7E7044A42F83310A8
:1013100002EBC30358607047704700BF743E002063
:1013200070B504460D461646FFF73CFB94F8443072
:101330005BB2B3F1FF3F0DD094F845305BB2B3F12F
:10134000FF3F0BD0FFF750FBA36B5BB12046FFF7CD
:1013500019FD70BD002384F84430EDE7002384F8C4
:101360004530EFE73246294604F1240000F0A0FBA7
:10137000ECE700000A4B1B681B684BB901234BB913
:10138000074B1B68DB68DB685A68064B1A607047BE
:101390000023F4E74FF0FF32024B1A60704700BFA2
:1013A0002C3D0020DC3D002010B50446006BFFF70B
:1013B0008DFA2046FFF78AFA10BD2DE9F0478146E5
:1013C0000D4617469A46089EDDF824800A9C920036
:1013D000A521206B00F001FF236B07F18042013A49
:1013E00003EB820727F007070023092B07D8E956EC
:1013F000E21882F83410EA560AB10133F5E7002307
:1014000084F83D30042E00D90426E662A664002547
:10141000E564201DFFF711FC04F11800FFF70DFC37
:101420002461C6F10506A6616462256584F85450FE
:10143000524649463846FFF789FA2060B8F1000F56
:1014400001D0C8F80040BDE8F087000038B500249E
:1014500007E004EB840293000E481844FFF7E2FB18
:101460000134042CF5D90C4D2846FFF7DBFB0B4C5F
:101470002046FFF7D7FB0A48FFF7D4FB0948FFF7E0
:10148000D1FB0948FFF7CEFB084B1D60084B1C60E1
:1014900038BD00BF343D0020B03D0020C43D0020D9
:1014A000E43D0020103E0020FC3D00202C3D0020AB
:1014B000303D002010B50446FFF774FA214A136846
:1014C00001331360204B1B68002B32D01F4B1B686D
:1014D0003BB91D4B1B68DA6AE36A9A4201D81A4B82
:1014E0001C601B4A1368013313602364E36A012202
:1014F0009A401849086802430A6003EB83039A0084
:10150000211D15481044FFF79BFBFFF76DFA0F4BA9
:101510001B686BB10C4B1B68DA6AE36A9A4207D20C
:101520004FF080520D4B1A60BFF34F8FBFF36F8F98
:1015300010BD054B1C601368012BD2D1FFF786FF4D
:10154000CFE700BF983D0020283D0020F83D002057
:10155000A83D0020AC3D0020343D002004ED00E01B
:1015600070B504460E461D4B1D681D4B18680430AF
:10157000FFF78CFB50B91A4B1B68DA6A012303FA98
:1015800002F218490B6823EA02030B60B4F1FF3F33
:1015900013D02C44124B1B685C60A54216D8124B2A
:1015A00018680F4B19680431FFF756FB0F4B1B6887
:1015B0009C4201D20D4B1C6070BD002EE9D0084B3F
:1015C000196804310A48FFF73BFB70BD094B1868E6
:1015D000034B19680431FFF73FFB70BD243E002028
:1015E000283D0020AC3D00202C3D0020DC3D0020AB
:1015F000FC3D0020303D00202DE9F04385B006463B
:101600000F46154698469000FFF72CF900B3814627
:101610005820FFF727F90446B0B1C0F83090CCB19C
:101620000023039302940D9B01930C9B009343466C
:101630002A4639463046FFF7C0FE2046FFF73AFFFC
:10164000012005B0BDE8F0834846FFF73FF9E6E723
:101650000024E4E74FF0FF30F3E7000000B583B06B
:101660001A4B0193002300934FF4807218491948D4
:10167000FFF7C2FF012807D0012808D0B0F1FF3FD3
:101680001AD003B05DF804FB00F0FCFBF4E74FF068
:10169000500383F31188BFF36F8FBFF34F8F4FF069
:1016A000FF320D4B1A6001220C4B1A6000220C4BCA
:1016B0001A60FFF713FAE4E74FF0500383F3118841
:1016C000BFF36F8FBFF34F8FFEE700BFD83D002001
:1016D000BC2C000885190008DC3D0020F83D0020E6
:1016E000243E0020024A136801331360704700BF94
:1016F000A43D0020014B1868704700BF243E002025
:10170000F8B53F4B1B68002B72D13E4B1D6801356D
:101710001D60C5B93C4B1B681B6843B14FF05003BB
:1017200083F31188BFF36F8FBFF34F8FFEE7364A05
:101730001168364B186810601960354A1368013318
:101740001360FFF717FE334B1B689D4244D2002401
:10175000314B1B68DB6A03EB83039A002F4B9B58CA
:10176000012B00D901242E4B1B680BB9FFF760F841
:101770002C4B1B6803B101242046F8BD0124224BE9
:101780001B681B6853B3002353BB1F4B1B68DB68EC
:10179000DE6873689D4228D3371D3846FFF776FA16
:1017A000B36A1BB106F11800FFF770FAF36A012261
:1017B0009A401D49086802430A6003EB83039A00BC
:1017C000394616481044FFF73BFAF26A124B1B6881
:1017D000DB6A9A42D2D2D2E70024D0E70123D3E7D2
:1017E0004FF0FF320B4B1A60B2E70A4A1360AFE7C3
:1017F0000B4A136801331360FFF71AF80024B7E7A8
:10180000A43D0020243E00202C3D0020303D00203F
:10181000E03D0020DC3D0020283D0020343D00203C
:10182000A03D0020283E0020AC3D002038B5354BBF
:101830001B6843B94FF0500383F31188BFF36F8FD8
:10184000BFF34F8FFEE7FFF7ADF82E4B1A68013A52
:101850001A601B68002B50D12B4B1B6823B9002446
:10186000FFF7C2F8204638BD0024284B1B681BB385
:10187000264BDB68DC6804F11800FFF707FA251D2A
:101880002846FFF703FAE36A01229A4020490868D4
:1018900002430A6003EB83039A0029461D48104463
:1018A000FFF7CEF9E26A1C4B1B68DB6A9A42DCD375
:1018B00001221A4B1A60D8E70CB1FFF75BFD184BF9
:1018C0001C6874B9154B1B68CBB14FF08052154B97
:1018D0001A60BFF34F8FBFF36F8F0124C0E7013C45
:1018E00007D0FFF70DFF0028F9D001220B4B1A603B
:1018F000F5E700220A4B1A60E4E70024B0E7002471
:10190000AEE700BFA43D0020983D0020E43D00204C
:10191000AC3D0020343D0020283D0020283E002022
:10192000A03D002004ED00E0134B1B6813B310B57D
:10193000FFF7D8FE114B1C68FFF778FF24B90E4B58
:101940001B68002BF4D110BDFFF72CF80B4BDB68A4
:10195000DC68201DFFF79AF9094A1368013B136000
:10196000054A1368013B1360FFF73EF82046FFF776
:101970001BFDE4E7704700BF9C3D0020103E0020A7
:10198000983D002008B501E0FEF75AFFFFF7CCFFB5
:10199000064B1B68012BF7D94FF08052044B1A609D
:1019A000BFF34F8FBFF36F8FEEE700BF343D0020D2
:1019B00004ED00E02D4B1B6853BB10B500222C4BEF
:1019C0001A602C4B1B681B6B1A68B2F1A53F03D140
:1019D0005A68B2F1A53F1FD0264B186819683431F8
:1019E000FEF73EFF244B1B68B3FA83F3DBB2C3F16F
:1019F0001F0303EB83018A0020498A58AAB94FF0DC
:101A0000500383F31188BFF36F8FBFF34F8FFEE74F
:101A10000122174B1A6070479A68B2F1A53FDBD1DB
:101A2000DB68B3F1A53FD7D1DCE714489A00D4189E
:101A3000A10001444C6864684C601A44910008316C
:101A40000844844209D003EB83039A000B4B1344F0
:101A50005B68DA68074B1A6010BD606803EB8302AD
:101A60009100064A0A445060EDE700BFA43D002003
:101A7000283E0020283D0020AC3D0020343D0020C1
:101A800040B94FF0500383F31188BFF36F8FBFF35A
:101A90004F8FFEE710B50C46044B19681831FFF75D
:101AA000DBF801212046FFF75BFD10BD283D00203B
:101AB00038B570B10C4615460A4A11681831FFF75F
:101AC000BFF80DB14FF0FF3429462046FFF748FD1F
:101AD00038BD4FF0500383F31188BFF36F8FBFF30E
:101AE0004F8FFEE7283D002038B5C368DC6824B37B
:101AF00004F118052846FFF7C9F8184B1B682BBBE3
:101B0000251D2846FFF7C2F8E36A01229A401449CE
:101B1000086802430A6003EB83039A0029461148D0
:101B20001044FFF78DF8E26A0F4B1B68DB6A9A429C
:101B300011D901200D4B186038BD4FF0500383F3CD
:101B40001188BFF36F8FBFF34F8FFEE72946084818
:101B5000FFF776F8E7E7002038BD00BFA43D00207E
:101B6000AC3D0020343D0020283D0020283E0020D0
:101B7000E43D002030B1084A12680260074A12684A
:101B8000426070474FF0500383F31188BFF36F8FAB
:101B9000BFF34F8FFEE700BFE03D0020243E002052
:101BA00038B5C0B10446F9B10D46FEF7FBFE1A4B3D
:101BB00019682B68B3F1FF3F2AD02068174A1268D2
:101BC000904202D06268914224D26268881A8342AD
:101BD00013D8012418E04FF0500383F31188BFF3AA
:101BE0006F8FBFF34F8FFEE74FF0500383F31188E1
:101BF000BFF36F8FBFF34F8FFEE7521A13442B6072
:101C00002046FFF7B7FF0024FEF7EEFE204638BD62
:101C10000024F9E70124F7E7243E0020E03D0020FE
:101C20000122014B1A607047283E0020054B1B68BB
:101C300023B1054B1B681BB9022070470120704778
:101C400000207047F83D0020A43D0020002847D028
:101C500038B50446C36A23490968C96A8B4216D25B
:101C60008169002905DB1F490968C96AC1F10501BD
:101C70008161606903EB830399001B4B0B4498421D
:101C800006D0002333B9174B1B68DB6AE36238BD0B
:101C90000123F7E7251D2846FEF7F8FF68B9E36A38
:101CA00003EB83018A0010498A5832B901229A4015
:101CB0000E490B6823EA02030B600A4B1B68DB6AC0
:101CC000E36201229A400949086802430A6003EB73
:101CD00083039A00294604481044FEF7B1FF38BD3B
:101CE000704700BF283D0020343D0020AC3D00205F
:101CF00000284AD038B50446274A1268904208D0D6
:101D00004FF0500383F31188BFF36F8FBFF34F8FF2
:101D1000FEE7C26C42B94FF0500383F31188BFF362
:101D20006F8FBFF34F8FFEE7013AC264C06AA16CA8
:101D300088422CD06ABB251D2846FEF7A7FF70B944
:101D4000E26A02EB82018B001449CB583BB90123B4
:101D500003FA02F212490B6823EA02030B60A36C38
:101D6000E362C3F10502A261012404FA03F20C4903
:101D7000086802430A6003EB83039A002946074878
:101D80001044FEF75DFF204638BD0020704700205C
:101D900038BD002038BD00BF283D0020343D002064
:101DA000AC3D0020054B1B6823B1044B1A68D36C73
:101DB0000133D364014B1868704700BF283D0020F1
:101DC000064B1A681368B3FA83F35B09036013B90F
:101DD000D368186870470020704700BF2C3E002071
:101DE00008B54160006191420CD8D21A83699A42C9
:101DF00001D3012008BD011D094B1868FEF72CFF17
:101E0000002008BD9A4201D2994206D2011D054B1D
:101E10001868FEF721FF002008BD012008BD00BFA3
:101E2000303E00202C3E002038B5FEF7BBFD0F4BA6
:101E30001B6813B1FEF7D8FD38BD0D4D2846FEF7DF
:101E4000F1FE0C4C2046FEF7EDFE0B4B1D600B4BDC
:101E50001C6000220C210A20FFF71DF8034B1860BC
:101E60000028E7D00649FFF747FAE3E7603E002085
:101E7000343E0020483E00202C3E0020303E002012
:101E8000C42C000800B583B0FFF7CEFF0E4B1B68D3
:101E9000A3B10E4B01930223009300234FF4007271
:101EA0000B490C48FFF7A8FB50B94FF0500383F3E0
:101EB0001188BFF36F8FBFF34F8FFEE70020F3E76A
:101EC00003B05DF804FB00BF603E0020643E0020CC
:101ED000CC2C0008A1210008C0B130B585B0154652
:101EE0000446174A106840B31A46019102950394BC
:101EF00005291CDCFFF79AFE022810D000231A46A1
:101F000001A90F480068FEF7EBFF14E04FF0500303
:101F100083F31188BFF36F8FBFF34F8FFEE700236A
:101F2000089A01A906480068FEF7DAFF03E00023DB
:101F300001A9FFF799F805B030BD0020FBE700BF0D
:101F4000603E002070B582B01A4B1B681A6852B30D
:101F5000DB681E68DC68251D2846FEF797FE636A6D
:101F600020469847E369012BEED1A36933449E4292
:101F700007D26360246129460E4B1868FEF76CFE99
:101F8000E2E7002100910B4632462046FFF7A4FF0E
:101F90000028D9D14FF0500383F31188BFF36F8F1E
:101FA000BFF34F8FFEE7044A1068024908601360D0
:101FB00002B070BD2C3E0020303E002038B50546F2
:101FC000FFF798FB0446074B1B68984205D3002394
:101FD0002B60044B1C60204638BDFFF7B3FF012384
:101FE0002B60F6E75C3E002070B582B005460E46D9
:101FF000144B1B68DB68DC68201DFEF747FEE369B5
:10200000012B04D0636A2046984702B070BDA169D5
:102010002B46324629442046FFF7E2FE0028F1D045
:10202000002100910B462A462046FFF755FF002865
:10203000E8D14FF0500383F31188BFF36F8FBFF3E4
:102040004F8FFEE72C3E002070B582B006460C464E
:10205000FFF748FB01A8FFF7B1FF019B23BB054633
:102060000CB9B04219D22CB1114B1B681C68B4FAE0
:1020700084F464092246711B0E4B1868FFF750F96F
:10208000FFF7D4FB38B94FF080520B4B1A60BFF307
:102090004F8FBFF36F8F02B070BDFFF7C7FB2946AC
:1020A0003046FFF7A1FFF6E7FFF7C0FBF3E700BFFD
:1020B000303E0020603E002004ED00E030B587B0E7
:1020C00000231A4603A935480068FFF73DF80028A9
:1020D00061D0039B002BF3DB059C636913B1201DCA
:1020E000FEF7D4FD02A8FFF769FF039B092BE7D891
:1020F00001A252F823F000BF21210008212100088D
:1021000021210008C1200008692100088F21000852
:102110002121000821210008C120000869210008B0
:102120000499A5690B46024629442046FFF758FE4C
:102130000028C5D0636A20469847E369012BBFD1C8
:10214000A269002100910B46049802442046FFF743
:10215000C3FE0028B4D14FF0500383F31188BFF3BE
:102160006F8FBFF34F8FFEE70499A16131B1034632
:10217000024601442046FFF733FEA1E74FF050032B
:1021800083F31188BFF36F8FBFF34F8FFEE72046B5
:10219000FEF79CFB94E707B030BD00BF603E002017
:1021A00000B583B001A8FFF70BFE0199FFF74CFFC4
:1021B000FFF784FFF6E70000014B1868704700BF87
:1021C0002400002010B5431E0A44914200D110BDE6
:1021D00011F8014B03F8014FF7E70244034693421D
:1021E00000D1704703F8011BF9E730B5141E05460E
:1021F0009BB0184605DA8B232B604FF0FF301BB0E5
:1022000030BD4FF40273ADF80C3014BF04F1FF334E
:102210002346029305934FF6FF7300910491ADF8A6
:102220000E3002461E9B6946284600F075F8431C96
:10223000BCBF8B232B60002CE1D0009B00221A70C6
:10224000DDE7000007B5009313460A460146034840
:102250000068FFF7CAFF03B05DF804FB240000200C
:102260002DE9F0478E689E4282460C46914698467C
:1022700035D88A8912F4906F31D0256809696F1AB0
:102280006569022305EB450595FBF3F508F10103AC
:102290003B449D4238BF1D46530531D5294600F0C9
:1022A0007FFB064650B90C23CAF80030A38943F0DF
:1022B0004003A3814FF0FF30BDE8F0873A46216923
:1022C000FFF780FFA38923F4906343F08003A38189
:1022D000266165613E44ED1B2660A5604646464585
:1022E00028BF464632464946206800F0F1FAA36806
:1022F0009B1BA36023681E4426600020BDE8F08776
:102300002A4600F0ABFB06460028E1D12169504681
:1023100000F0F8FAC7E700002DE9F04F9DB08046C5
:1023200003938B891C060D4616460FD50B696BB9B6
:10233000402100F035FB2860286128B90C23C8F83B
:1023400000304FF0FF30C5E040236B61002309935C
:1023500020238DF8293030238DF82A304FF0010BDF
:1023600037463C4614F8013B002B3CD1B7EB060A3C
:102370000BD05346324629464046FFF771FF0130E5
:1023800000F0A380099B534409933B78002B00F095
:102390009C8000234FF0FF3204930793059206932D
:1023A0008DF853301A9305222178504800F040FAF6
:1023B000671C049BD8B9D90644BF20228DF853204E
:1023C0001A0744BF2B228DF8532022782A2A16D0D0
:1023D000079A00210A20274601343B78303B092B1D
:1023E00051D9C9B111E0252BC0D02746B9E73F4AE2
:1023F000801A0BFA00F0184304903C46D3E7039A86
:10240000111D12680391002A01DB079204E0524279
:1024100043F00203079204933B782E2B0ED17B7876
:102420002A2B07F1010132D1039B1A1D1B6803926D
:10243000002BB8BF4FF0FF33023705932C4C39788F
:102440000322204600F0F4F938B14023001B03FAC0
:1024500000F0049B034304930137397825488DF835
:10246000281006227E1C00F0E3F9002835D0224B0C
:10247000FBB9039B073323F0070308330393099B3E
:102480004B4409936CE700FB02320121A3E70023D0
:10249000059318460A240F4601313A78303A092A42
:1024A00003D9002BCAD00590C8E704FB0020012304
:1024B000F1E703AB00932A46104B04A94046AFF363
:1024C0000080B0F1FF3F8146D9D1AB895B063FF573
:1024D00038AF09981DB0BDE8F08F03AB00932A46D2
:1024E000064B04A9404600F081F8EAE7D42C000826
:1024F000DA2C0008DE2C0008000000006122000831
:102500002DE9F04791461F468A680B69DDF8208067
:102510009342B8BF1346C9F8003091F843200646ED
:102520000C4612B10133C9F800302368990642BF46
:10253000D9F800300233C9F80030256815F00605D7
:1025400007D104F1190AE368D9F800209B1A9D42CB
:1025500029DB94F843302268003318BF0123920628
:102560002ED404F1430239463046C047013021D011
:102570002368E568D9F8002003F00603042B08BFA0
:10258000AD1AA36822690CBF25EAE57500259342C0
:10259000C4BF9B1AED184FF000091A344D451BD1EA
:1025A0000020BDE8F0870123524639463046C04737
:1025B000013003D14FF0FF30BDE8F0870135C2E7AD
:1025C000E1185A1C302081F84300224494F8451049
:1025D00082F843100233C4E70123224639463046CD
:1025E000C0470130E6D009F10109D7E72DE9F043F2
:1025F00017460A7E85B06E2A984606460C460C9B06
:1026000001F1430E00F0BC801AD8632A2ED00AD8FC
:10261000002A00F0C880582A00F08A8004F14205A0
:1026200084F842202AE0642A01D0692AF6D1216880
:102630001A6811F0800F23D0111D1960136827E06C
:10264000732A00F0B48008D86F2A2AD0702AE5D106
:102650000A6842F020020A6003E0752A21D0782A35
:10266000DCD1782284F845206E4964E01A6801F1D3
:102670004205111D1960136884F842300123A3E05C
:1026800011F0400F02F104011960D7D0B2F9003007
:10269000002B03DA2D225B4284F8432062490A2290
:1026A00017E02068196810F0800F03D0081D18602B
:1026B0000B6806E010F0400F01F104001860F7D03D
:1026C0000B8859496F2A14BF0A220822002084F877
:1026D00043006568A560002DC0F29C80206820F052
:1026E00004002060002B3FD1002D40F095807546FE
:1026F000082A0BD12368DA0708D5236962689A4251
:10270000DEBF302305F8013C05F1FF35AEEB0503D4
:102710002361CDF800803B4603AA21463046FFF7EF
:10272000EFFE013055D14FF0FF3005B0BDE8F0832A
:1027300081F845203C492268186812F0800F00F1AA
:1027400004051D6001D0036802E05506FBD503882F
:10275000D00744BF42F0200222601BB9226822F059
:10276000200222601022B1E77546B3FBF2F002FBB3
:102770001033CB5C05F8013D03460028F5D1B7E7DF
:1027800008681A68496910F0800F04D0101D18609D
:102790001368196007E010F0400F02F104001860A0
:1027A0001368F6D01980002323617546B1E71A68D3
:1027B000111D1960156862680021284600F038F87C
:1027C00008B1401B606063682361002384F84330D4
:1027D0009FE723692A4639463046C0470130A2D0D8
:1027E00023689B0707D5002504F11909E368039ABC
:1027F0009B1A9D4205DBE068039B9842B8BF1846D0
:1028000093E701234A4639463046C04701308AD013
:102810000135EBE7002BA7D10B7884F8423004F1A7
:10282000420565E7F62C0008E52C000800000000D2
:1028300001F0FF01102A2BDB10F0070F08D010F871
:10284000013B013A8B422DD010F0070F42B3F6D175
:10285000F0B441EA012141EA014122F007047FF08E
:1028600000070023F0E80256083C85EA010586EAE5
:10287000010685FA47F5A3FA87F586FA47F6A5FA21
:1028800087F68EB9EED1F0BC01F0FF0102F007022D
:1028900032B110F8013B013A83EA010313B1F8D1D8
:1028A0000020704701387047002D06BF35460338B9
:1028B000073815F0010F07D1013015F4807F02BFF2
:1028C000013015F4C03F0130F0BC0138704700BF43
:1028D000884210B501EB020303D8421E99420CD185
:1028E00010BD9842F9D28118D21AD34200D110BD3E
:1028F00013F8014D01F8014DF7E711F8014B02F80B
:10290000014FEBE738B50546002945D051F8043CA6
:102910000C1F002BB8BFE41800F0D6F81F4A13684C
:10292000104633B9636014602846BDE8384000F0B3
:10293000CCB8A3420CD921686218934204BF1A682C
:102940005B68636004BF521822600460ECE71346C2
:102950005A680AB1A242FAD919685818A0420BD194
:1029600020680144581882421960DDD1106852680D
:102970005A6001441960D7E702D90C232B60D3E7D2
:10298000206821188A4204BF11685268626004BF3F
:10299000091821605C60C7E738BD00BF683E0020B1
:1029A00070B5CD1C25F0030508350C2D38BF0C255E
:1029B000002D064601DBA94203D90C233360002019
:1029C00070BD00F081F8234A1468214691B9224C69
:1029D00023681BB9304600F067F82060294630466E
:1029E00000F062F8431C26D10C233360304600F01F
:1029F0006CF8E4E70B685B1B1AD40B2B0FD90B6048
:102A0000CD50CC18304600F060F804F10B00231DC7
:102A100020F00700C31A1BD05A42E25070BD8C420E
:102A20000DBF63684B686360136018BF0C46E9E72D
:102A30000C464968CAE7C41C24F00304A04205D030
:102A4000211A304600F030F80130CDD02560D9E7AA
:102A500070BD00BF683E00206C3E0020F8B5074600
:102A600014460E4621B91146BDE8F840FFF798BF5D
:102A700022B9FFF747FF25462846F8BD00F026F8A3
:102A800084420FD921463846FFF78AFF05460028C1
:102A9000F2D031462246FFF795FB31463846FFF724
:102AA00031FFE9E73546E7E738B5064C0023054630
:102AB00008462360FDF7AEFC431C02D1236803B136
:102AC0002B6038BD703E00207047704751F8040CF1
:102AD0000028A0F10400BCBF0B58C01870470000CC
:102AE000537461636B206672616D653A0A00000081
:102AF000205230203D2020253038580A00000000A8
:102B0000205231203D2020253038580A0000000096
:102B1000205232203D2020253038580A0000000085
:102B2000205233203D2020253038580A0000000074
:102B300020523132203D20253038580A0000000054
:102B4000204C52203D2020253038580A000000003B
:102B5000205043203D2020253038580A0000000036
:102B600020505352203D20253038580A00000000E4
:102B70004653522F4641523A0A0000002043465322
:102B800052203D2020253038580A00002048465366
:102B900052203D2020253038580A0000204446535A
:102BA00052203D2020253038580A0000204146534D
:102BB00052203D2020253038580A0000204D4D4637
:102BC0004152203D20253038580A0000204246411D
:102BD00052203D2020253038580A00004D6973638B
:102BE0000A000000204C522F4558435F524554556F
:102BF000524E3D20253038580A0000005B48617273
:102C0000644661756C745D0A000000005B42757378
:102C10004661756C745D0A005B557361676546615A
:102C2000756C745D0A000000546573745461736BB5
:102C300000000000456E7465726564207641707016
:102C40006C69636174696F6E49646C65486F6F6B22
:102C50000A000000456E74657265642076417070EC
:102C60006C69636174696F6E4D616C6C6F63466112
:102C7000696C6564486F6F6B0A000000496E2054F0
:102C800061736B20764170706C69636174696F6EFB
:102C90005461736B546573740A000000456E74656B
:102CA00072656420764170706C69636174696F6EDF
:102CB0005469636B486F6F6B0A00000049444C45D0
:102CC00000000000546D725100000000546D72202D
:102CD00053766300232D302B2000686C4C00656612
:102CE000674546470030313233343536373839415D
:102CF0004243444546003031323334353637383973
:072D00006162636465660077
:102D080078563412940000200000000000000000F3
:102D180000000000010203040607080900A24A0493
:102D2800AAAAAAAA280000200000000000000000AB
:102D3800000000000000000000000000000000008B
:102D4800000000000000000000000000000000007B
:102D5800000000000000000000000000000000006B
:102D6800000000000000000000000000000000005B
:102D7800000000000000000000000000000000004B
:0C2D8800000000000000000032547698AB
:040000050800018965
:00000001FF
